{
  "contractName": "NBA_MVP_Ballot",
  "abi": [
    {
      "constant": true,
      "inputs": [],
      "name": "candidateNumber",
      "outputs": [
        {
          "name": "",
          "type": "uint256"
        }
      ],
      "payable": false,
      "stateMutability": "view",
      "type": "function"
    },
    {
      "constant": true,
      "inputs": [],
      "name": "ballotOfficialAddress",
      "outputs": [
        {
          "name": "",
          "type": "address"
        }
      ],
      "payable": false,
      "stateMutability": "view",
      "type": "function"
    },
    {
      "constant": true,
      "inputs": [],
      "name": "state",
      "outputs": [
        {
          "name": "",
          "type": "uint8"
        }
      ],
      "payable": false,
      "stateMutability": "view",
      "type": "function"
    },
    {
      "constant": true,
      "inputs": [],
      "name": "voterNumber",
      "outputs": [
        {
          "name": "",
          "type": "uint256"
        }
      ],
      "payable": false,
      "stateMutability": "view",
      "type": "function"
    },
    {
      "constant": true,
      "inputs": [],
      "name": "winner",
      "outputs": [
        {
          "name": "",
          "type": "uint256"
        }
      ],
      "payable": false,
      "stateMutability": "view",
      "type": "function"
    },
    {
      "constant": true,
      "inputs": [],
      "name": "totalVote",
      "outputs": [
        {
          "name": "",
          "type": "uint256"
        }
      ],
      "payable": false,
      "stateMutability": "view",
      "type": "function"
    },
    {
      "inputs": [],
      "payable": false,
      "stateMutability": "nonpayable",
      "type": "constructor"
    },
    {
      "anonymous": false,
      "inputs": [
        {
          "indexed": false,
          "name": "voter",
          "type": "address"
        }
      ],
      "name": "voterAdded",
      "type": "event"
    },
    {
      "anonymous": false,
      "inputs": [
        {
          "indexed": false,
          "name": "_candidateID",
          "type": "uint256"
        }
      ],
      "name": "candidateAdded",
      "type": "event"
    },
    {
      "anonymous": false,
      "inputs": [],
      "name": "voteStarted",
      "type": "event"
    },
    {
      "anonymous": false,
      "inputs": [
        {
          "indexed": false,
          "name": "finalResult",
          "type": "uint256"
        }
      ],
      "name": "voteEnded",
      "type": "event"
    },
    {
      "anonymous": false,
      "inputs": [
        {
          "indexed": false,
          "name": "voter",
          "type": "address"
        }
      ],
      "name": "voteDone",
      "type": "event"
    },
    {
      "constant": false,
      "inputs": [
        {
          "name": "_voterAddress",
          "type": "address"
        }
      ],
      "name": "registerVoter",
      "outputs": [],
      "payable": false,
      "stateMutability": "nonpayable",
      "type": "function"
    },
    {
      "constant": false,
      "inputs": [
        {
          "name": "_playerId",
          "type": "uint256"
        }
      ],
      "name": "registerCandidate",
      "outputs": [
        {
          "name": "",
          "type": "uint256"
        }
      ],
      "payable": false,
      "stateMutability": "nonpayable",
      "type": "function"
    },
    {
      "constant": false,
      "inputs": [
        {
          "name": "_playerId",
          "type": "uint256"
        }
      ],
      "name": "unRegisterCandidate",
      "outputs": [
        {
          "name": "",
          "type": "uint256"
        }
      ],
      "payable": false,
      "stateMutability": "nonpayable",
      "type": "function"
    },
    {
      "constant": false,
      "inputs": [
        {
          "name": "_voterAddress",
          "type": "address"
        }
      ],
      "name": "unRegisterVoter",
      "outputs": [],
      "payable": false,
      "stateMutability": "nonpayable",
      "type": "function"
    },
    {
      "constant": false,
      "inputs": [],
      "name": "startVoting",
      "outputs": [],
      "payable": false,
      "stateMutability": "nonpayable",
      "type": "function"
    },
    {
      "constant": false,
      "inputs": [
        {
          "name": "_voterAddress",
          "type": "address"
        },
        {
          "name": "pref1",
          "type": "uint256"
        },
        {
          "name": "pref2",
          "type": "uint256"
        },
        {
          "name": "pref3",
          "type": "uint256"
        },
        {
          "name": "pref4",
          "type": "uint256"
        },
        {
          "name": "pref5",
          "type": "uint256"
        }
      ],
      "name": "votePlayer",
      "outputs": [],
      "payable": false,
      "stateMutability": "nonpayable",
      "type": "function"
    },
    {
      "constant": false,
      "inputs": [],
      "name": "endVoting",
      "outputs": [],
      "payable": false,
      "stateMutability": "nonpayable",
      "type": "function"
    },
    {
      "constant": true,
      "inputs": [
        {
          "name": "_playerId",
          "type": "uint256"
        }
      ],
      "name": "tallyPoints",
      "outputs": [
        {
          "name": "",
          "type": "uint256"
        }
      ],
      "payable": false,
      "stateMutability": "view",
      "type": "function"
    },
    {
      "constant": false,
      "inputs": [],
      "name": "winningProposal",
      "outputs": [],
      "payable": false,
      "stateMutability": "nonpayable",
      "type": "function"
    }
  ],
  "bytecode": "0x60806040526000600f55600060105560006011556000601255600060145534801561002957600080fd5b5033601360006101000a81548173ffffffffffffffffffffffffffffffffffffffff021916908373ffffffffffffffffffffffffffffffffffffffff1602179055506000601960006101000a81548160ff0219169083600281111561008a57fe5b02179055506110f98061009e6000396000f3fe608060405234801561001057600080fd5b50600436106100f55760003560e01c80639094974711610097578063d13c008d11610066578063d13c008d146102fa578063dfbf53ae14610318578063ebc3b66314610336578063f1cea4c7146103ac576100f5565b80639094974714610238578063b4aef03214610282578063c19d93fb146102c4578063c3403ddf146102f0576100f5565b80633b802421116100d35780633b8024211461018a5780635fc98c35146101a8578063609ff1bd146101ea5780636e628594146101f4576100f5565b80630b2a85ea146100fa5780631ec6b60a1461013c57806338db6dd314610146575b600080fd5b6101266004803603602081101561011057600080fd5b81019080803590602001909291905050506103ca565b6040518082815260200191505060405180910390f35b610144610565565b005b6101886004803603602081101561015c57600080fd5b81019080803573ffffffffffffffffffffffffffffffffffffffff169060200190929190505050610645565b005b6101926108d3565b6040518082815260200191505060405180910390f35b6101d4600480360360208110156101be57600080fd5b81019080803590602001909291905050506108d9565b6040518082815260200191505060405180910390f35b6101f2610933565b005b6102366004803603602081101561020a57600080fd5b81019080803573ffffffffffffffffffffffffffffffffffffffff169060200190929190505050610a3e565b005b610240610bcf565b604051808273ffffffffffffffffffffffffffffffffffffffff1673ffffffffffffffffffffffffffffffffffffffff16815260200191505060405180910390f35b6102ae6004803603602081101561029857600080fd5b8101908080359060200190929190505050610bf5565b6040518082815260200191505060405180910390f35b6102cc610d45565b604051808260028111156102dc57fe5b60ff16815260200191505060405180910390f35b6102f8610d58565b005b610302610e0c565b6040518082815260200191505060405180910390f35b610320610e12565b6040518082815260200191505060405180910390f35b6103aa600480360360c081101561034c57600080fd5b81019080803573ffffffffffffffffffffffffffffffffffffffff1690602001909291908035906020019092919080359060200190929190803590602001909291908035906020019092919080359060200190929190505050610e18565b005b6103b461108c565b6040518082815260200191505060405180910390f35b6000808060028111156103d957fe5b601960009054906101000a900460ff1660028111156103f457fe5b146103fe57600080fd5b601360009054906101000a900473ffffffffffffffffffffffffffffffffffffffff1673ffffffffffffffffffffffffffffffffffffffff163373ffffffffffffffffffffffffffffffffffffffff161461045857600080fd5b6005600f54111561046d57600f54915061055f565b6005600f541015610527576040518060600160405280848152602001600081526020016001151581525060156000858152602001908152602001600020600082015181600001556020820151816001015560408201518160020160006101000a81548160ff021916908315150217905550905050600f60008154809291906001019190505550826018600060145481526020019081526020016000208190555060146000815480929190600101919050555082915061055f565b7f58b6df71f7457b483a796c1077e42ea827427ecccb2156d374fe8e03524ccdc5836040518082815260200191505060405180910390a15b50919050565b600080600281111561057357fe5b601960009054906101000a900460ff16600281111561058e57fe5b1461059857600080fd5b601360009054906101000a900473ffffffffffffffffffffffffffffffffffffffff1673ffffffffffffffffffffffffffffffffffffffff163373ffffffffffffffffffffffffffffffffffffffff16146105f257600080fd5b6001601960006101000a81548160ff0219169083600281111561061157fe5b02179055507fd0dc01800a369fef30d3fced5275b8b916549867622e79efca5245c479fda4ea60405160405180910390a150565b600080600281111561065357fe5b601960009054906101000a900460ff16600281111561066e57fe5b1461067857600080fd5b601360009054906101000a900473ffffffffffffffffffffffffffffffffffffffff1673ffffffffffffffffffffffffffffffffffffffff163373ffffffffffffffffffffffffffffffffffffffff16146106d257600080fd5b601360009054906101000a900473ffffffffffffffffffffffffffffffffffffffff1673ffffffffffffffffffffffffffffffffffffffff168273ffffffffffffffffffffffffffffffffffffffff16141561072d57600080fd5b610735611092565b82816000019073ffffffffffffffffffffffffffffffffffffffff16908173ffffffffffffffffffffffffffffffffffffffff16815250506000816020019015159081151581525050600181604001901515908115158152505080601660008573ffffffffffffffffffffffffffffffffffffffff1673ffffffffffffffffffffffffffffffffffffffff16815260200190815260200160002060008201518160000160006101000a81548173ffffffffffffffffffffffffffffffffffffffff021916908373ffffffffffffffffffffffffffffffffffffffff16021790555060208201518160000160146101000a81548160ff02191690831515021790555060408201518160000160156101000a81548160ff0219169083151502179055509050506010600081548092919060010191905055507fb9e5f9042e6c6eb94817f660cfa81afea9585e59d72bfc3348a2305cbd33e13383604051808273ffffffffffffffffffffffffffffffffffffffff1673ffffffffffffffffffffffffffffffffffffffff16815260200191505060405180910390a1505050565b600f5481565b600060028060028111156108e957fe5b601960009054906101000a900460ff16600281111561090457fe5b1461090e57600080fd5b6000601560008581526020019081526020016000206001015490508092505050919050565b600280600281111561094157fe5b601960009054906101000a900460ff16600281111561095c57fe5b1461096657600080fd5b600080905060008090505b600f54811015610a00578160156000601860008581526020019081526020016000205481526020019081526020016000206001015411156109f357601560006018600084815260200190815260200160002054815260200190815260200160002060010154915060186000828152602001908152602001600020546012819055505b8080600101915050610971565b507fb43a401dcdbe02a8afa41feb6c651425997908d1a4b79cf505188ba1dd3fd8726012546040518082815260200191505060405180910390a15050565b6000806002811115610a4c57fe5b601960009054906101000a900460ff166002811115610a6757fe5b14610a7157600080fd5b601360009054906101000a900473ffffffffffffffffffffffffffffffffffffffff1673ffffffffffffffffffffffffffffffffffffffff163373ffffffffffffffffffffffffffffffffffffffff1614610acb57600080fd5b60405180606001604052808373ffffffffffffffffffffffffffffffffffffffff16815260200160001515815260200160001515815250601660008473ffffffffffffffffffffffffffffffffffffffff1673ffffffffffffffffffffffffffffffffffffffff16815260200190815260200160002060008201518160000160006101000a81548173ffffffffffffffffffffffffffffffffffffffff021916908373ffffffffffffffffffffffffffffffffffffffff16021790555060208201518160000160146101000a81548160ff02191690831515021790555060408201518160000160156101000a81548160ff0219169083151502179055509050505050565b601360009054906101000a900473ffffffffffffffffffffffffffffffffffffffff1681565b600080806002811115610c0457fe5b601960009054906101000a900460ff166002811115610c1f57fe5b14610c2957600080fd5b601360009054906101000a900473ffffffffffffffffffffffffffffffffffffffff1673ffffffffffffffffffffffffffffffffffffffff163373ffffffffffffffffffffffffffffffffffffffff1614610c8357600080fd5b60008090505b600f548111610d39578360156000838152602001908152602001600020600001541415610d2c57604051806060016040528060008152602001600081526020016000151581525060008260058110610cdd57fe5b60030201600082015181600001556020820151816001015560408201518160020160006101000a81548160ff021916908315150217905550905050600f60008154809291906001900391905055505b8080600101915050610c89565b50600f54915050919050565b601960009054906101000a900460ff1681565b6001806002811115610d6657fe5b601960009054906101000a900460ff166002811115610d8157fe5b14610d8b57600080fd5b601360009054906101000a900473ffffffffffffffffffffffffffffffffffffffff1673ffffffffffffffffffffffffffffffffffffffff163373ffffffffffffffffffffffffffffffffffffffff1614610de557600080fd5b6002601960006101000a81548160ff02191690836002811115610e0457fe5b021790555050565b60105481565b60125481565b6001806002811115610e2657fe5b601960009054906101000a900460ff166002811115610e4157fe5b14610e4b57600080fd5b601660008873ffffffffffffffffffffffffffffffffffffffff1673ffffffffffffffffffffffffffffffffffffffff16815260200190815260200160002060000160159054906101000a900460ff168015610ef45750601660008873ffffffffffffffffffffffffffffffffffffffff1673ffffffffffffffffffffffffffffffffffffffff16815260200190815260200160002060000160149054906101000a900460ff16155b1561102057600a6015600088815260200190815260200160002060010160008282540192505081905550600760156000878152602001908152602001600020600101600082825401925050819055506005601560008681526020019081526020016000206001016000828254019250508190555060036015600085815260200190815260200160002060010160008282540192505081905550600160156000848152602001908152602001600020600101600082825401925050819055506001601660008973ffffffffffffffffffffffffffffffffffffffff1673ffffffffffffffffffffffffffffffffffffffff16815260200190815260200160002060000160146101000a81548160ff0219169083151502179055506011600081548092919060010191905055505b7f55c65cf9526efdf6c2252fe9757889dbd93e10172cad0f2edb1df619c88dbf7d33604051808273ffffffffffffffffffffffffffffffffffffffff1673ffffffffffffffffffffffffffffffffffffffff16815260200191505060405180910390a150505050505050565b60115481565b6040518060600160405280600073ffffffffffffffffffffffffffffffffffffffff168152602001600015158152602001600015158152509056fea165627a7a72305820721cdbc9eecf4dbb0002d57789b9e6d74bc1d53acf7d58e2c5982c299eabbd5e0029",
  "source": "\n\n\n\n/**\n * @file NBA_MVP_Ballot.sol\n * @author Mohammed Samsuddin <mshmsudd@buffalo.edu>\n * @author Taktuk Taktuk      <taktukta@buffalo.edu>\n * @date created 22nd Sept 2019\n * @date last modified 29th Sept 2019\n */\n\npragma solidity >=0.4.22 <0.6.0;\n\ncontract NBA_MVP_Ballot {\n    \n\n// -------------------------------------------------------------- Data and Attributes ----------------------------------------------------------------------------------------\n    \n    \n    // A voter has 3 attributes, his address\n    // boolean variable hasVoted\n    // And boolean variable isRegistered\n    struct voter{\n        address voterAddress;\n        bool hasVoted;\n        bool isRegistered;\n\n    }\n    \n\n    // a player have 3 attributes\n    // an integer variable player ID \n    // an integer variable points\n    // an boolean variable isRegistered\n    struct Player{\n        uint playerId;\n        uint points;            // can we update this along the way?\n        bool isRegistered;\n                \n    }\n    \n    Player[5] player;   // only 5 players are allowed to participate in the election\n    uint public candidateNumber = 0 ;   // to keep track of how many candidates there are\n    uint public voterNumber = 0 ;   // to keep track of how many voter there are\n    uint public totalVote = 0; // total number of vote\n    uint public winner = 0;\n    \n    // The ballot official name, wallet address and proposal are kept as public variables for everyone to see. \n    address public ballotOfficialAddress; \n    \n    uint iter= 0;      //         \n\n    // candidate are stored in a mapping called candidateRegister\n    mapping(uint => Player) candidateRegister;  \n    \n    // voter are stored in a mapping called voterRegister.\n    // voterRegister is public so anyone can check who are the eligible voters.\n    // One may ask why I wouldn't store my voters in arrays.\n    // The challenge with using arrays in an Ethereum blockchain is that you are likely to start running out of gas while trying to traverse the records of a considerably sized array.\n    mapping(address => voter) voterRegister;\n    \n    mapping(address => uint) votePreference;  // for preference.\n    \n    mapping(uint => uint) candidatePoints;  // i = 0... 4     =>   playerID1 , playerID2, playerID3 ,... playerID5\n    \n    \n    // The ballot contract goes through 3 states.\n    // When the chairman creates it, it is in the state of \"Created\".\n    // Once he indicates that voting starts, the ballot contract turns to the state of \"Voting\".\n    // When counting starts, the goes into the state of \"Ended\". \n    enum State { Created, Voting, Ended }\n\tState public state;\n\n\n// -------------------------------------------------------------- Modifiers ----------------------------------------------------------------------------------------\n\n    // The onlyOfficial() modifier\n    // calling this function is the same address as what is saved in ballotOfficialAddress.\n    // This ensures that only the oficial himself is allowed to call the function.\n    // In the event that the official denies ever starting the ballot, this will serve as evidence that it was really him, unless someone stole his wallet and private key.\n\tmodifier onlyOfficial() {\n\t\trequire(msg.sender == ballotOfficialAddress);\n\t\t_;\n\t}\n\n    // The modifier for inState is declared from lines 89 to 94.\n    // It checks to ensure that the contract is currently in the state provided as variable to the inState() modifier.\n\tmodifier inState(State _state) {\n\t\trequire(state == _state);\n\t\t_;\n\t}\n\n\n// -------------------------------------------------------------- Events ----------------------------------------------------------------------------------------\n\n    // event\n    event voterAdded(address voter);\n    event candidateAdded(uint _candidateID);\n    event voteStarted();\n    event voteEnded(uint finalResult);\n    event voteDone(address voter);\n\n\n\n// -------------------------------------------------------------- Functions ----------------------------------------------------------------------------------------\n\n\n\n    // Creates a new ballot contract.\n\t// The official initializes the contract with the constructor by providing his _ballotOfficialName and _proposal.\n\t// The constructor reads his wallet address and update the ballotOfficialAddress.\n\t// This is important because folks who might wonder if this is a legitimate ballot can compare what they know is the chairman's wallet address to what is saved here.\n\t// At this point, the state of the contract is \"Created\"\n\tconstructor() public {\n\t    \n        ballotOfficialAddress = msg.sender;\n        state = State.Created;\n    }\n\n\n    // to register such voter, we will locate their voter object and make their instance variable isRegistered to true\n    function registerVoter(address _voterAddress) public inState(State.Created) onlyOfficial {\n        \n        require(_voterAddress != ballotOfficialAddress);\n        \n        // the ballot official are not allowed to vote\n        voter memory v;\n        v.voterAddress = _voterAddress;\n        v.hasVoted = false;\n        v.isRegistered = true;\n        voterRegister[_voterAddress] = v;  //voter ( voterId , hasVoted , isRegistered)\n        voterNumber++;\n        emit voterAdded(_voterAddress);\n        \n    }\n    \n    \n    \n    // candidate means the Player that will be contending for MVP \n    // this function will take in the playerID of candidate and register them accordingdly\n    function registerCandidate(uint _playerId) public inState(State.Created) onlyOfficial returns (uint) {\n        \n        if (candidateNumber > 5) {\n             return candidateNumber;\n        } else if (candidateNumber < 5) {\n            candidateRegister[_playerId] = Player(_playerId, 0, true) ;  //registerCandidate(\"LBJ\")  ...  source: https://solidity.readthedocs.io/en/v0.4.24/types.html\n            candidateNumber++;  // now that we have a candidate registered , we can increase the counter\n            candidatePoints[iter] = _playerId;  // pair each number 0...4 with playerID \n            iter++;\n            return _playerId;\n        }\n        emit candidateAdded(_playerId);\n    }\n\n\n    // to unregister such candidate, we will locate their Player object and make their instance variable isRegistered to false\n    function unRegisterCandidate(uint _playerId) public inState(State.Created) onlyOfficial returns (uint) {\n        //candidateRegister[_playerId] = Player(_playerId, 0, false) ;  //registerCandidate(\"LBJ\")  ...  source: https://solidity.readthedocs.io/en/v0.4.24/types.html\n        //candidateNumber--;\n            \n            \n        for (uint i = 0; i <= candidateNumber; i++){\n            if(candidateRegister[i].playerId == _playerId){\n                player[i] = Player(0,0,false);  // if player exists in player array.. remove it somehow\n                candidateNumber--;\n            }\n        }\n           \n        return candidateNumber; \n    }\n\n    // to unregister such voter, we will locate their voter object and make their instance variable isRegistered to false\n    function unRegisterVoter(address _voterAddress) public inState(State.Created) onlyOfficial {\n        voterRegister[_voterAddress] = voter(_voterAddress, false,false);   // hasVoted == false\n    }\n\n\n                            /*\n                                1st place - 10 points\n                                2nd place - 7 points\n                                3rd place - 5 points\n                                4th place - 3 points\n                                5th place - 1 point\n                                \n                            */\n                                \n                                \n                                \n    // declare voting starts now\n    function startVoting() public inState(State.Created) onlyOfficial {\n        state = State.Voting;     \n        emit voteStarted();\n    }\n    \n\n    // user will enter playerId of their top preferences\n    // the candidates will have their points updated accoridng to the voter's preferences\n    function votePlayer(address _voterAddress , uint pref1 , uint pref2, uint pref3, uint pref4, uint pref5) public inState(State.Voting) {\n        \n        if(voterRegister[_voterAddress].isRegistered && !(voterRegister[_voterAddress].hasVoted)) {  // verifying that voter is registered\n            candidateRegister[pref1].points += 10;                                                     // also that the user hasn't already voted!\n            candidateRegister[pref2].points += 7;\n            candidateRegister[pref3].points += 5;\n            candidateRegister[pref4].points += 3;\n            candidateRegister[pref5].points += 1;\n            voterRegister[_voterAddress].hasVoted = true;\n            totalVote++;\n                                                               //vote!  update players points accordingly\n        }\n    \n        emit voteDone(msg.sender);\n    }\n    \n    \n    \n    // End the voting\n    function endVoting() public inState(State.Voting) onlyOfficial {\n        state = State.Ended;\n\n    }\n    \n    \n    // this is used to collect all the points. We do so by accessing the playerID of the hashmap to get value -> points\n    function tallyPoints (uint _playerId) public view inState(State.Ended) returns (uint){\n      uint _points = candidateRegister[_playerId].points;\n      return _points;\n    }\n    \n    \n    // Return the Winner\n    function winningProposal() public inState(State.Ended) {\n        \n        uint256 mostPoints = 0;\n        //uint winner ; // playerID of player with most points \n        \n        for (uint i = 0; i < candidateNumber; i++){\n            if (candidateRegister[candidatePoints[i]].points > mostPoints) { // candidate[i] gives u the ID of candidate\n                mostPoints = candidateRegister[candidatePoints[i]].points ; // each int .. from 0 to 4 is paired with                                                                  \n                winner = candidatePoints[i];\n          \n            }\n        }\n        \n        emit voteEnded(winner);\n    }\n    \n    \n    \n    \n    \n}   // END OF NBA_MVP_Ballot\n",
  "sourcePath": "/home/taktuk/Desktop/ballot/ballot-contract/contracts/NBA_MVP_Ballot.sol",
  "compiler": {
    "name": "solc",
    "version": "0.5.8+commit.23d335f2.Emscripten.clang"
  },
  "schemaVersion": "3.0.16",
  "updatedAt": "2019-10-20T14:14:00.843Z",
  "devdoc": {
    "methods": {}
  },
  "userdoc": {
    "methods": {}
  }
}