{
  "contractName": "NBA_MVP_Ballot",
  "abi": [
    {
      "constant": true,
      "inputs": [],
      "name": "candidateNumber",
      "outputs": [
        {
          "name": "",
          "type": "uint256"
        }
      ],
      "payable": false,
      "stateMutability": "view",
      "type": "function"
    },
    {
      "constant": true,
      "inputs": [],
      "name": "ballotOfficialAddress",
      "outputs": [
        {
          "name": "",
          "type": "address"
        }
      ],
      "payable": false,
      "stateMutability": "view",
      "type": "function"
    },
    {
      "constant": true,
      "inputs": [],
      "name": "state",
      "outputs": [
        {
          "name": "",
          "type": "uint8"
        }
      ],
      "payable": false,
      "stateMutability": "view",
      "type": "function"
    },
    {
      "constant": true,
      "inputs": [],
      "name": "voterNumber",
      "outputs": [
        {
          "name": "",
          "type": "uint256"
        }
      ],
      "payable": false,
      "stateMutability": "view",
      "type": "function"
    },
    {
      "constant": true,
      "inputs": [],
      "name": "winner",
      "outputs": [
        {
          "name": "",
          "type": "uint256"
        }
      ],
      "payable": false,
      "stateMutability": "view",
      "type": "function"
    },
    {
      "constant": true,
      "inputs": [],
      "name": "totalVote",
      "outputs": [
        {
          "name": "",
          "type": "uint256"
        }
      ],
      "payable": false,
      "stateMutability": "view",
      "type": "function"
    },
    {
      "inputs": [],
      "payable": false,
      "stateMutability": "nonpayable",
      "type": "constructor"
    },
    {
      "anonymous": false,
      "inputs": [
        {
          "indexed": false,
          "name": "voterNum",
          "type": "uint256"
        }
      ],
      "name": "voterAdded",
      "type": "event"
    },
    {
      "anonymous": false,
      "inputs": [
        {
          "indexed": false,
          "name": "voterNum",
          "type": "uint256"
        }
      ],
      "name": "voterRemoved",
      "type": "event"
    },
    {
      "anonymous": false,
      "inputs": [
        {
          "indexed": false,
          "name": "_candidateID",
          "type": "uint256"
        },
        {
          "indexed": false,
          "name": "_numOfCandidate",
          "type": "uint256"
        }
      ],
      "name": "candidateAdded",
      "type": "event"
    },
    {
      "anonymous": false,
      "inputs": [],
      "name": "voteStarted",
      "type": "event"
    },
    {
      "anonymous": false,
      "inputs": [
        {
          "indexed": false,
          "name": "finalResult",
          "type": "uint256"
        }
      ],
      "name": "voteEnded",
      "type": "event"
    },
    {
      "anonymous": false,
      "inputs": [
        {
          "indexed": false,
          "name": "voter",
          "type": "address"
        },
        {
          "indexed": false,
          "name": "totalVote",
          "type": "uint256"
        }
      ],
      "name": "voteDone",
      "type": "event"
    },
    {
      "constant": false,
      "inputs": [
        {
          "name": "_voterAddress",
          "type": "address"
        }
      ],
      "name": "registerVoter",
      "outputs": [
        {
          "name": "",
          "type": "uint256"
        }
      ],
      "payable": false,
      "stateMutability": "nonpayable",
      "type": "function"
    },
    {
      "constant": false,
      "inputs": [
        {
          "name": "_playerId",
          "type": "uint256"
        }
      ],
      "name": "registerCandidate",
      "outputs": [
        {
          "name": "",
          "type": "uint256"
        }
      ],
      "payable": false,
      "stateMutability": "nonpayable",
      "type": "function"
    },
    {
      "constant": false,
      "inputs": [
        {
          "name": "_playerId",
          "type": "uint256"
        }
      ],
      "name": "unRegisterCandidate",
      "outputs": [
        {
          "name": "",
          "type": "uint256"
        }
      ],
      "payable": false,
      "stateMutability": "nonpayable",
      "type": "function"
    },
    {
      "constant": false,
      "inputs": [
        {
          "name": "_voterAddress",
          "type": "address"
        }
      ],
      "name": "unRegisterVoter",
      "outputs": [
        {
          "name": "",
          "type": "uint256"
        }
      ],
      "payable": false,
      "stateMutability": "nonpayable",
      "type": "function"
    },
    {
      "constant": false,
      "inputs": [],
      "name": "startVoting",
      "outputs": [
        {
          "name": "",
          "type": "uint256"
        }
      ],
      "payable": false,
      "stateMutability": "nonpayable",
      "type": "function"
    },
    {
      "constant": false,
      "inputs": [
        {
          "name": "_voterAddress",
          "type": "address"
        },
        {
          "name": "pref1",
          "type": "uint256"
        },
        {
          "name": "pref2",
          "type": "uint256"
        },
        {
          "name": "pref3",
          "type": "uint256"
        },
        {
          "name": "pref4",
          "type": "uint256"
        },
        {
          "name": "pref5",
          "type": "uint256"
        }
      ],
      "name": "votePlayer",
      "outputs": [
        {
          "name": "",
          "type": "uint256"
        }
      ],
      "payable": false,
      "stateMutability": "nonpayable",
      "type": "function"
    },
    {
      "constant": false,
      "inputs": [],
      "name": "endVoting",
      "outputs": [
        {
          "name": "",
          "type": "uint256"
        }
      ],
      "payable": false,
      "stateMutability": "nonpayable",
      "type": "function"
    },
    {
      "constant": true,
      "inputs": [
        {
          "name": "_playerId",
          "type": "uint256"
        }
      ],
      "name": "tallyPoints",
      "outputs": [
        {
          "name": "",
          "type": "uint256"
        }
      ],
      "payable": false,
      "stateMutability": "view",
      "type": "function"
    },
    {
      "constant": false,
      "inputs": [],
      "name": "winningProposal",
      "outputs": [
        {
          "name": "",
          "type": "uint256"
        }
      ],
      "payable": false,
      "stateMutability": "nonpayable",
      "type": "function"
    }
  ],
  "bytecode": "0x60806040526000600f55600060105560006011556000601255600060145534801561002957600080fd5b5033601360006101000a81548173ffffffffffffffffffffffffffffffffffffffff021916908373ffffffffffffffffffffffffffffffffffffffff1602179055506000601960006101000a81548160ff0219169083600281111561008a57fe5b02179055506113538061009e6000396000f3fe608060405234801561001057600080fd5b50600436106100f55760003560e01c80639094974711610097578063d13c008d11610066578063d13c008d1461035e578063dfbf53ae1461037c578063ebc3b6631461039a578063f1cea4c714610424576100f5565b80639094974714610288578063b4aef032146102d2578063c19d93fb14610314578063c3403ddf14610340576100f5565b80633b802421116100d35780633b802421146101b25780635fc98c35146101d0578063609ff1bd146102125780636e62859414610230576100f5565b80630b2a85ea146100fa5780631ec6b60a1461013c57806338db6dd31461015a575b600080fd5b6101266004803603602081101561011057600080fd5b8101908080359060200190929190505050610442565b6040518082815260200191505060405180910390f35b610144610612565b6040518082815260200191505060405180910390f35b61019c6004803603602081101561017057600080fd5b81019080803573ffffffffffffffffffffffffffffffffffffffff1690602001909291905050506106f8565b6040518082815260200191505060405180910390f35b6101ba6109b9565b6040518082815260200191505060405180910390f35b6101fc600480360360208110156101e657600080fd5b81019080803590602001909291905050506109bf565b6040518082815260200191505060405180910390f35b61021a610a43565b6040518082815260200191505060405180910390f35b6102726004803603602081101561024657600080fd5b81019080803573ffffffffffffffffffffffffffffffffffffffff169060200190929190505050610b56565b6040518082815260200191505060405180910390f35b610290610d22565b604051808273ffffffffffffffffffffffffffffffffffffffff1673ffffffffffffffffffffffffffffffffffffffff16815260200191505060405180910390f35b6102fe600480360360208110156102e857600080fd5b8101908080359060200190929190505050610d48565b6040518082815260200191505060405180910390f35b61031c610e58565b6040518082600281111561032c57fe5b60ff16815260200191505060405180910390f35b610348610e6b565b6040518082815260200191505060405180910390f35b610366610f26565b6040518082815260200191505060405180910390f35b610384610f2c565b6040518082815260200191505060405180910390f35b61040e600480360360c08110156103b057600080fd5b81019080803573ffffffffffffffffffffffffffffffffffffffff1690602001909291908035906020019092919080359060200190929190803590602001909291908035906020019092919080359060200190929190505050610f32565b6040518082815260200191505060405180910390f35b61042c6112e6565b6040518082815260200191505060405180910390f35b60008080600281111561045157fe5b601960009054906101000a900460ff16600281111561046c57fe5b1461047657600080fd5b601360009054906101000a900473ffffffffffffffffffffffffffffffffffffffff1673ffffffffffffffffffffffffffffffffffffffff163373ffffffffffffffffffffffffffffffffffffffff16146104d057600080fd5b6005600f5411156104e557600f54915061060c565b6005600f5410801561051857506015600084815260200190815260200160002060020160009054906101000a900460ff16155b156105c5576040518060600160405280848152602001600081526020016001151581525060156000858152602001908152602001600020600082015181600001556020820151816001015560408201518160020160006101000a81548160ff021916908315150217905550905050600f6000815480929190600101919050555082601860006014548152602001908152602001600020819055506014600081548092919060010191905055505b7fc8af2e7aec9333af9023dca370dadb2626cad5f0d31d4b58f2e5cdc51f75182683600f54604051808381526020018281526020019250505060405180910390a1600f5491505b50919050565b60008080600281111561062157fe5b601960009054906101000a900460ff16600281111561063c57fe5b1461064657600080fd5b601360009054906101000a900473ffffffffffffffffffffffffffffffffffffffff1673ffffffffffffffffffffffffffffffffffffffff163373ffffffffffffffffffffffffffffffffffffffff16146106a057600080fd5b7fd0dc01800a369fef30d3fced5275b8b916549867622e79efca5245c479fda4ea60405160405180910390a16001601960006101000a81548160ff021916908360028111156106eb57fe5b0217905550600191505090565b60008080600281111561070757fe5b601960009054906101000a900460ff16600281111561072257fe5b1461072c57600080fd5b601360009054906101000a900473ffffffffffffffffffffffffffffffffffffffff1673ffffffffffffffffffffffffffffffffffffffff163373ffffffffffffffffffffffffffffffffffffffff161461078657600080fd5b601360009054906101000a900473ffffffffffffffffffffffffffffffffffffffff1673ffffffffffffffffffffffffffffffffffffffff168373ffffffffffffffffffffffffffffffffffffffff1614156107e157600080fd5b601660008473ffffffffffffffffffffffffffffffffffffffff1673ffffffffffffffffffffffffffffffffffffffff16815260200190815260200160002060000160159054906101000a900460ff166109755761083d6112ec565b83816000019073ffffffffffffffffffffffffffffffffffffffff16908173ffffffffffffffffffffffffffffffffffffffff16815250506000816020019015159081151581525050600181604001901515908115158152505080601660008673ffffffffffffffffffffffffffffffffffffffff1673ffffffffffffffffffffffffffffffffffffffff16815260200190815260200160002060008201518160000160006101000a81548173ffffffffffffffffffffffffffffffffffffffff021916908373ffffffffffffffffffffffffffffffffffffffff16021790555060208201518160000160146101000a81548160ff02191690831515021790555060408201518160000160156101000a81548160ff021916908315150217905550905050601060008154809291906001019190505550505b7fd68fec4f7959f6d265cf608d61c9ab43c14f2211774217f504923863e2c310af6010546040518082815260200191505060405180910390a1601054915050919050565b600f5481565b600060028060028111156109cf57fe5b601960009054906101000a900460ff1660028111156109ea57fe5b146109f457600080fd5b60006015600085815260200190815260200160002060020160009054906101000a900460ff1615610a3957601560008581526020019081526020016000206001015490505b8092505050919050565b60006002806002811115610a5357fe5b601960009054906101000a900460ff166002811115610a6e57fe5b14610a7857600080fd5b600080905060008090505b600f54811015610b1257816015600060186000858152602001908152602001600020548152602001908152602001600020600101541115610b0557601560006018600084815260200190815260200160002054815260200190815260200160002060010154915060186000828152602001908152602001600020546012819055505b8080600101915050610a83565b507fb43a401dcdbe02a8afa41feb6c651425997908d1a4b79cf505188ba1dd3fd8726012546040518082815260200191505060405180910390a16012549250505090565b600080806002811115610b6557fe5b601960009054906101000a900460ff166002811115610b8057fe5b14610b8a57600080fd5b601360009054906101000a900473ffffffffffffffffffffffffffffffffffffffff1673ffffffffffffffffffffffffffffffffffffffff163373ffffffffffffffffffffffffffffffffffffffff1614610be457600080fd5b601660008473ffffffffffffffffffffffffffffffffffffffff1673ffffffffffffffffffffffffffffffffffffffff16815260200190815260200160002060000160159054906101000a900460ff1615610cde57601660008473ffffffffffffffffffffffffffffffffffffffff1673ffffffffffffffffffffffffffffffffffffffff168152602001908152602001600020600080820160006101000a81549073ffffffffffffffffffffffffffffffffffffffff02191690556000820160146101000a81549060ff02191690556000820160156101000a81549060ff02191690555050601060008154809291906001900391905055505b7faec91951ee76a245c845d30c247db09b38b0f06b0104411e7161b8ca21ee8d296010546040518082815260200191505060405180910390a1601054915050919050565b601360009054906101000a900473ffffffffffffffffffffffffffffffffffffffff1681565b600080806002811115610d5757fe5b601960009054906101000a900460ff166002811115610d7257fe5b14610d7c57600080fd5b601360009054906101000a900473ffffffffffffffffffffffffffffffffffffffff1673ffffffffffffffffffffffffffffffffffffffff163373ffffffffffffffffffffffffffffffffffffffff1614610dd657600080fd5b6015600084815260200190815260200160002060020160009054906101000a900460ff1615610e4d576015600084815260200190815260200160002060008082016000905560018201600090556002820160006101000a81549060ff02191690555050600f60008154809291906001900391905055505b600f54915050919050565b601960009054906101000a900460ff1681565b60006001806002811115610e7b57fe5b601960009054906101000a900460ff166002811115610e9657fe5b14610ea057600080fd5b601360009054906101000a900473ffffffffffffffffffffffffffffffffffffffff1673ffffffffffffffffffffffffffffffffffffffff163373ffffffffffffffffffffffffffffffffffffffff1614610efa57600080fd5b6002601960006101000a81548160ff02191690836002811115610f1957fe5b0217905550600291505090565b60105481565b60125481565b60006001806002811115610f4257fe5b601960009054906101000a900460ff166002811115610f5d57fe5b14610f6757600080fd5b601360009054906101000a900473ffffffffffffffffffffffffffffffffffffffff1673ffffffffffffffffffffffffffffffffffffffff168873ffffffffffffffffffffffffffffffffffffffff161415610fc257600080fd5b601660008973ffffffffffffffffffffffffffffffffffffffff1673ffffffffffffffffffffffffffffffffffffffff16815260200190815260200160002060000160159054906101000a900460ff16801561106b5750601660008973ffffffffffffffffffffffffffffffffffffffff1673ffffffffffffffffffffffffffffffffffffffff16815260200190815260200160002060000160149054906101000a900460ff16155b15611269576015600088815260200190815260200160002060020160009054906101000a900460ff16156110bf57600a60156000898152602001908152602001600020600101600082825401925050819055505b6015600087815260200190815260200160002060020160009054906101000a900460ff161561110e57600760156000888152602001908152602001600020600101600082825401925050819055505b6015600086815260200190815260200160002060020160009054906101000a900460ff161561115d57600560156000878152602001908152602001600020600101600082825401925050819055505b6015600085815260200190815260200160002060020160009054906101000a900460ff16156111ac57600360156000868152602001908152602001600020600101600082825401925050819055505b6015600084815260200190815260200160002060020160009054906101000a900460ff16156111fb57600160156000858152602001908152602001600020600101600082825401925050819055505b6001601660008a73ffffffffffffffffffffffffffffffffffffffff1673ffffffffffffffffffffffffffffffffffffffff16815260200190815260200160002060000160146101000a81548160ff0219169083151502179055506011600081548092919060010191905055505b7f38fe4ba5e380d2dec910804e4b0ca3bf60f562610b706ec506f5c583b75eda8833601154604051808373ffffffffffffffffffffffffffffffffffffffff1673ffffffffffffffffffffffffffffffffffffffff1681526020018281526020019250505060405180910390a16011549150509695505050505050565b60115481565b6040518060600160405280600073ffffffffffffffffffffffffffffffffffffffff168152602001600015158152602001600015158152509056fea165627a7a7230582006299d07f06d60f84d3d77a5549e229d9cc529b68029a73ab99b5a4c2103bb420029",
  "source": "\n\n\n\n/**\n * @file NBA_MVP_Ballot.sol\n * @author Mohammed Samsuddin <mshmsudd@buffalo.edu>\n * @author Taktuk Taktuk      <taktukta@buffalo.edu>\n * @date created 22nd Sept 2019\n * @date last modified 29th Sept 2019\n */\n\npragma solidity >=0.4.22 <0.6.0;\n\ncontract NBA_MVP_Ballot {\n    \n\n// -------------------------------------------------------------- Data and Attributes ----------------------------------------------------------------------------------------\n    \n    \n    // A voter has 3 attributes, his address\n    // boolean variable hasVoted\n    // And boolean variable isRegistered\n    struct voter{\n        address voterAddress;\n        bool hasVoted;\n        bool isRegistered;\n\n    }\n    \n\n    // a player have 3 attributes\n    // an integer variable player ID \n    // an integer variable points\n    // an boolean variable isRegistered\n    struct Player{\n        uint playerId;\n        uint points;            // can we update this along the way?\n        bool isRegistered;\n                \n    }\n    \n    Player[5] player;   // only 5 players are allowed to participate in the election\n    uint public candidateNumber = 0 ;   // to keep track of how many candidates there are\n    uint public voterNumber = 0 ;   // to keep track of how many voter there are\n    uint public totalVote = 0; // total number of vote\n    uint public winner = 0;\n    \n    // The ballot official name, wallet address and proposal are kept as public variables for everyone to see. \n    address public ballotOfficialAddress; \n    \n    uint iter= 0;      //         \n\n    // candidate are stored in a mapping called candidateRegister\n    mapping(uint => Player) candidateRegister;  \n    \n    // voter are stored in a mapping called voterRegister.\n    // voterRegister is public so anyone can check who are the eligible voters.\n    // One may ask why I wouldn't store my voters in arrays.\n    // The challenge with using arrays in an Ethereum blockchain is that you are likely to start running out of gas while trying to traverse the records of a considerably sized array.\n    mapping(address => voter) voterRegister;\n    \n    mapping(address => uint) votePreference;  // for preference.\n    \n    mapping(uint => uint) candidatePoints;  // i = 0... 4     =>   playerID1 , playerID2, playerID3 ,... playerID5\n    \n    \n    // The ballot contract goes through 3 states.\n    // When the chairman creates it, it is in the state of \"Created\".\n    // Once he indicates that voting starts, the ballot contract turns to the state of \"Voting\".\n    // When counting starts, the goes into the state of \"Ended\". \n    enum State { Created, Voting, Ended }\n\tState public state;\n\n\n// -------------------------------------------------------------- Modifiers ----------------------------------------------------------------------------------------\n\n    // The onlyOfficial() modifier\n    // calling this function is the same address as what is saved in ballotOfficialAddress.\n    // This ensures that only the oficial himself is allowed to call the function.\n    // In the event that the official denies ever starting the ballot, this will serve as evidence that it was really him, unless someone stole his wallet and private key.\n\tmodifier onlyOfficial() {\n\t\trequire(msg.sender == ballotOfficialAddress);\n\t\t_;\n\t}\n\n    // The modifier for inState is declared from lines 89 to 94.\n    // It checks to ensure that the contract is currently in the state provided as variable to the inState() modifier.\n\tmodifier inState(State _state) {\n\t\trequire(state == _state);\n\t\t_;\n\t}\n\n\n// -------------------------------------------------------------- Events ----------------------------------------------------------------------------------------\n\n    // event\n    event voterAdded(uint voterNum);\n    event voterRemoved(uint voterNum);\n    event candidateAdded(uint _candidateID, uint _numOfCandidate);\n    event voteStarted();\n    event voteEnded(uint finalResult);\n    event voteDone(address voter, uint totalVote);\n\n\n\n// -------------------------------------------------------------- Functions ----------------------------------------------------------------------------------------\n\n\n\n    // Creates a new ballot contract.\n\t// The official initializes the contract with the constructor by providing his _ballotOfficialName and _proposal.\n\t// The constructor reads his wallet address and update the ballotOfficialAddress.\n\t// This is important because folks who might wonder if this is a legitimate ballot can compare what they know is the chairman's wallet address to what is saved here.\n\t// At this point, the state of the contract is \"Created\"\n\tconstructor() public {\n\t    \n        ballotOfficialAddress = msg.sender;\n        state = State.Created;\n    }\n\n\n    // to register such voter, we will locate their voter object and make their instance variable isRegistered to true\n    function registerVoter(address _voterAddress) public inState(State.Created) onlyOfficial returns (uint) {\n        \n        require(_voterAddress != ballotOfficialAddress);\n        \n        // the ballot official are not allowed to vote\n        if(!(voterRegister[_voterAddress].isRegistered)) {\n            voter memory v;\n            v.voterAddress = _voterAddress;\n            v.hasVoted = false;\n            v.isRegistered = true;\n            voterRegister[_voterAddress] = v;  //voter ( voterId , hasVoted , isRegistered)\n            voterNumber++;\n        }\n\n        emit voterAdded(voterNumber);\n        return voterNumber;\n    }\n    \n    \n    \n    // candidate means the Player that will be contending for MVP \n    // this function will take in the playerID of candidate and register them accordingdly\n    function registerCandidate(uint _playerId) public inState(State.Created) onlyOfficial returns (uint) {\n        \n        if (candidateNumber > 5) {\n             return candidateNumber;\n        } else if (candidateNumber < 5 && !(candidateRegister[_playerId].isRegistered)) {\n            candidateRegister[_playerId] = Player(_playerId, 0, true) ;  //registerCandidate(\"LBJ\")  ...  source: https://solidity.readthedocs.io/en/v0.4.24/types.html\n            candidateNumber++;  // now that we have a candidate registered , we can increase the counter\n            candidatePoints[iter] = _playerId;  // pair each number 0...4 with playerID \n            iter++;\n        }\n        emit candidateAdded(_playerId, candidateNumber);\n        return candidateNumber;\n    }\n\n\n    // to unregister such candidate, we will locate their Player object and make their instance variable isRegistered to false\n    function unRegisterCandidate(uint _playerId) public inState(State.Created) onlyOfficial returns (uint) {\n        //candidateRegister[_playerId] = Player(_playerId, 0, false) ;  //registerCandidate(\"LBJ\")  ...  source: https://solidity.readthedocs.io/en/v0.4.24/types.html\n        \n        if(candidateRegister[_playerId].isRegistered) {\n            delete candidateRegister[_playerId];\n            candidateNumber--;\n        }\n            \n            \n        /*for (uint i = 0; i <= candidateNumber; i++){\n            if(candidateRegister[i].playerId == _playerId){\n                player[i] = Player(0,0,false);  // if player exists in player array.. remove it somehow\n                candidateNumber--;\n            }\n        }*/\n           \n        return candidateNumber; \n    }\n\n    // to unregister such voter, we will locate their voter object and make their instance variable isRegistered to false\n    function unRegisterVoter(address _voterAddress) public inState(State.Created) onlyOfficial returns (uint) {\n\n        if(voterRegister[_voterAddress].isRegistered) {\n            delete voterRegister[_voterAddress];   // hasVoted == false\n            voterNumber--;\n        }\n\n        emit voterRemoved(voterNumber);\n        return voterNumber;\n    }\n\n                                \n                                \n                                \n    // declare voting starts now\n    function startVoting() public inState(State.Created) onlyOfficial returns (uint) {    \n        emit voteStarted();\n        state = State.Voting; \n        return 1;\n    }\n    \n\n    // user will enter playerId of their top preferences\n    // the candidates will have their points updated accoridng to the voter's preferences\n    function votePlayer(address _voterAddress , uint pref1 , uint pref2, uint pref3, uint pref4, uint pref5) public inState(State.Voting) returns(uint){\n        \n        require(_voterAddress != ballotOfficialAddress);\n\n        if(voterRegister[_voterAddress].isRegistered && !(voterRegister[_voterAddress].hasVoted)) {  // verifying that voter is registered\n            if(candidateRegister[pref1].isRegistered) {       \n                candidateRegister[pref1].points += 10;  \n            } \n            \n            if(candidateRegister[pref2].isRegistered) {\n                candidateRegister[pref2].points += 7;\n            }\n            \n            if(candidateRegister[pref3].isRegistered) {\n                candidateRegister[pref3].points += 5;\n            }\n            \n            if(candidateRegister[pref4].isRegistered) {\n                candidateRegister[pref4].points += 3;\n            }\n            \n            if(candidateRegister[pref5].isRegistered) {\n                candidateRegister[pref5].points += 1;\n            }\n            voterRegister[_voterAddress].hasVoted = true;\n            totalVote++;\n                                                               //vote!  update players points accordingly\n        }\n    \n        emit voteDone(msg.sender, totalVote);\n        return totalVote;\n    }\n    \n    \n    \n    // End the voting\n    function endVoting() public inState(State.Voting) onlyOfficial returns (uint) {\n        state = State.Ended;\n        return 2;\n    }\n    \n    \n    // this is used to collect all the points. We do so by accessing the playerID of the hashmap to get value -> points\n    function tallyPoints (uint _playerId) public view inState(State.Ended) returns (uint){\n        uint _points;\n        if(candidateRegister[_playerId].isRegistered) {\n            _points = candidateRegister[_playerId].points;\n        }\n        return _points;\n    }\n    \n    \n    // Return the Winner\n    function winningProposal() public inState(State.Ended) returns (uint){\n        \n        uint256 mostPoints = 0;\n         \n        \n        for (uint i = 0; i < candidateNumber; i++){\n            if (candidateRegister[candidatePoints[i]].points > mostPoints) {    // candidate[i] gives u the ID of candidate\n                mostPoints = candidateRegister[candidatePoints[i]].points;     // each int .. from 0 to 4 is paired with                                                                  \n                winner = candidatePoints[i];\n            }\n        }\n        \n        emit voteEnded(winner);\n        return winner;\n    }\n    \n    \n    \n    \n    \n}   // END OF NBA_MVP_Ballot\n",
  "sourcePath": "/Users/mohammedsamsuddin/Documents/FALL2019/CSE426BlockChain/CSE426-Lab-01/ballot/ballot-contract/contracts/NBA_MVP_Ballot.sol",
  "compiler": {
    "name": "solc",
    "version": "0.5.8+commit.23d335f2.Emscripten.clang"
  },
  "schemaVersion": "3.0.16",
  "updatedAt": "2019-11-13T23:33:58.407Z",
  "devdoc": {
    "methods": {}
  },
  "userdoc": {
    "methods": {}
  }
}